:020000002B2EA5
:0E0006003330FD00FD0B05280000000008004F
:100014000230FC004930FD00FD0B0E28FC0B0E28BD
:06002400000000000800CE
:0A002A002130FD00FD0B172808002F
:06003400000000000800BE
:10003A0021002D08393C031C292830302D02031CCD
:0C004A0029280130F0002A28F0010800ED
:1000560023009E18302800002B2821002D0823009D
:040066009A000800F4
:10006A002000FB01FA01F9018030F800F10CF00CD4
:10007A00031C48287408F90775080318750FFA074E
:10008A000318FB0A0310F01F50287408FA077508B2
:10009A000318750FFB07FB0CFA0CF90CF80C031C80
:1000AA003B287B08F3007A08F2007908F100780807
:0400BA00F00008004A
:1000BE002000F801F9011030FC00710DF80DF90D5A
:1000CE007408F8027508031C750FF90203187628D8
:1000DE007408F80775080318750FF9070310F00D6B
:0800EE00F10DFC0B6428080071
:1000F6002000F8010830FC00700DF80D7408F802B5
:1001060003188728F8070310F00DFC0B7F2808005A
:1001160021002F08F1000130F0007108031996281C
:10012600F035FF3E91287008B100F0092D088400D3
:100136002E088500700880058030840770088005C9
:100146000A2031088004803084020320310800052B
:10015600B0003008003A013003190030B0000A2020
:060166003008F000080063
:10016C0021002F08F1000130F00071080319C1289B
:10017C00F035FF3EBC287008B3007009B200B10125
:10018C002D0884002E088500B0013008073C031CA4
:10019C00F0283208800580308407320880051A2048
:1001AC00330880041A208030840233080005F000E4
:1001BC000319EC283008F1000130F0007108031924
:1001CC00EA28F035FF3EE5287008B104152015200B
:0A01DC00B00ACB283108F00008003B
:1001E60021002F08F1000130F00071080319FE28E4
:1001F600F035FF3EF9287008B300F0097008B20028
:100206002D0884002E08850070088005803084073C
:10021600B1013108073C031C25293108F0003008DC
:10022600F100700803191A29F136FF3E1529320824
:100236008005711C202933088004032033088004BC
:0E024600B10A0C298030840215201520080012
:1002540020006E0884006F08850000082100A000BB
:10026400A1010030A10000302106031D3B292030EC
:1002740020060319462900302106031D43290930AD
:100284002006031946294B292000EE0A0319EF0A18
:100294002A292100A201A301A401A50100302106FD
:1002A400031D56292D302006031D6029A40A0319B5
:1002B400A50A2000EE0A0319EF0A6D290030210077
:1002C4002106031D67292B302006031D6D292000FC
:1002D400EE0A0319EF0A20006E0884006F088500F7
:1002E40000082100A000A1010030A1002008AD00F9
:1002F4001D207008031999292208F0002308F10031
:100304000A30F4000030F50035203030210020029E
:10031400F2000030213BF30072087007A20073085A
:10032400713DA3002000EE0A0319EF0A6D29210094
:10033400240825040319A7292208003CF0002308F7
:10034400031C013EF101F102AB292208F00023084D
:04035400F1000800AC
:100358002000EF1FBA2920088600210887002D30C9
:100368008100EE09EF09EE0A0319EF0A6E08F000A2
:100378006F08F100F136F00C70082100A00064301D
:10038800F4007B2070080319D7296430F400210099
:100398002008F0007B2020088600210887003030E4
:1003A80070078100DD292008860021088700303089
:1003B8008100013020072100A50000302000213DE8
:1003C8002100A6000A30F4002008F0007B200A3043
:1003D800F4007B207808F0003030F0072100250871
:1003E8008600260887007008810002302000200758
:1003F8002100A50000302000213D2100A6000A3080
:10040800F4002008F0007B207808F0003030F00776
:100418002100250886002608870070088100200032
:100428006E08F0006F08F100F035F10DF035F10DB0
:10043800F035F10D70082100A1007108A2000F30FD
:10044800F0050030F1057008A1007108A2007130B4
:10045800F4000230F500352070082100A100710871
:10046800A2000430200020072100A5000030200051
:10047800213D2100A600E830F4000330F5005F209C
:100488003030F0072100250886002608870070080C
:1004980081000530200020072100A5000030200041
:1004A800213D2100A6006430F4000030F500210849
:1004B800F0002208F1005F200A30F4000030F50057
:1004C8005F207808F0007908F1003030F00721004B
:1004D800250886002608870070088100063020005D
:1004E80020072100A50000302000213D2100A600A2
:1004F8000A30F4000030F5002108F0002208F1006D
:100508005F200A30F4000030F5005F207808F00022
:100518007908F1003030F007210025088600260808
:100528008700700881000730200020072100A500FF
:1005380000302000213D2100A6000A30F4000030E0
:10054800F5002108F0002208F1005F207808F0008B
:100558007908F1003030F0072100250886002608C8
:10056800870070088100A301A40180302406F000F0
:1005780080307002031DC22A083023020318D62ACD
:100588002308200020078400210024082000213DA2
:10059800850000082100AD002B202100A30A0319C3
:1005A800A40AB92A0A30AD002B200D302100AD0075
:0405B8002B200800EC
:1005BC000E302100AD000030AE00AF018B200E30AC
:1005CC00AD000030AE00AF01CC30B000F3200E30E7
:1005DC00AD000030AE00AF014430B000F3204F301E
:1005EC00FD00FD0BF72A000000000E30AD000030BE
:1005FC00AE00AF018B200E30AD000030AE00AF016D
:10060C00CC30B000F3200E30AD000030AE00AF01A6
:10061C00BE30B000F3200E30AD000030AE00AF01A4
:10062C00B62070082000EE00EF010E302100AD0066
:10063C000030AE00AF01B6207008F300F2012000CC
:10064C006E087207F0006F08733DF1007008EE0041
:06065C007108EF00080028
:100662002000EE01EF0121002408F1002508F2002C
:1006720021007108220784007208233D85000008CA
:10068200260603195E2B20006E0821002007860033
:1006920020006F082100213D870071082207840095
:1006A2007208233D8500000881002000EE0A03192C
:1006B200EF0AF10A0319F20A392B20006E08210011
:1006C2002007860020006F082100213D870081015C
:0206D20008001E
:1006D4008030F0008030210021067002031D742B4D
:1006E4002008003C03187E2B2000EF012100200885
:1006F400AB002108AC00902B01302000EF0021005A
:100704002008F0002108F100FF30F400FF30F5006C
:10071400352070082100AB007108AC002208013AB2
:10072400031D992B20000D108D100D11182C200085
:100734000D156F080319A02BEE01A22B0130EE005A
:100744006E18A62B8D10A72B8D142100A701A801CC
:1007540080302806F00080302C067002031DB42B74
:100764002B0827020318082C20000D140030210048
:100774002406031DBF2B003023060319DD2BA9011A
:10078400AA0180302A06F000803024067002031D7E
:10079400CD2B230829020318DD2B0330FC009730EE
:1007A400FD00FD0BD32BFC0BD32B00000000A90A8A
:1007B4000319AA0AC32B20000D10003021002406BF
:1007C400031DE62B003023060319042CA901AA01FA
:1007D40080302A06F000803024067002031DF42BBA
:1007E400230829020318042C0330FC009730FD0071
:1007F400FD0BFA2BFC0BFA2B00000000A90A0319CD
:10080400AA0AEA2BA70A0319A80AAA2B0630FB0096
:100814001330FC00AD30FD00FD0B0E2CFC0B0E2C38
:0E082400FB0B0E2C0000000020000D11080040
:10083200DE227008BF007108C0007008F200710863
:10084200F300F336F20C7208DA0025307202031854
:100852002C2C8D16312C24305A02031C312C8D1273
:0208620008008C
:1008640020005A08EC005B08ED003A2DDE227008E7
:10087400BF007108C00070082100AD002B202100CA
:10088400AD012B209C2DDE227008EE007108EF00D4
:10089400AC219C2D5C302100A0000030A100200080
:1008A4005A082100A20020005B082100A3000130A7
:1008B400A4000030A5003B30A60031235C302000AA
:1008C400EE000030EF002A217008A0007108A1009A
:1008D400A2016430A3000030A400A501A6016A238C
:1008E4009C2D5C302100A0000030A10020005A089B
:1008F4002100A20020005B082100A3000130A40015
:100904000030A5003B30A60031235C302000EE000F
:100914000030EF002A21FF30F400FF30F5003520CD
:1009240070082100A0007108A100A2016430A30096
:100934000030A400A501A6016A239C2D2100A0017A
:10094400A1010130A200A301A401A501A6016A230B
:100954009C2D41082100AD002B209C2D013020004E
:100964005A07840000305B3D850000084E3A031DA1
:10097400BD2C8E14C82C01305A07840000305B3D16
:1009840085000008463A031DC82C8E109C2D0130AA
:100994005A07840000305B3D85000008483A031D77
:1009A400D62C0130AB00EF2C01305A078400003004
:1009B4005B3D85000008433A031DE32CAB018D1217
:1009C400EF2C01305A07840000305B3D850000089D
:1009D400463A031DEF2CAB018D129C2D01305A07B2
:1009E400840000305B3D850000084E3A031DFC2C5A
:1009F4001014072D01305A07840000305B3D850038
:100A04000008463A031D072D10109C2D8F1A0F2D38
:100A140059302100AD002B20132D4E302100AD00A4
:100A24002B209C2D4B302100AD002B209C2D200031
:100A34000E19232D0C1A232D47302100AD002B2035
:100A4400342D20000E1D2D2D0C1A2D2D4630210085
:100A5400AD002B20342D20000C1E342D45302100F8
:100A6400AD002B209C2D21302100AD002B209C2D8E
:100A740020006C0884006D0885000008543A0319AE
:100A8400382C6C0884006D0885000008743A03193A
:100A9400452C6C0884006D08850000082B3A031966
:100AA4004C2C6C0884006D08850000082D3A03194D
:100AB400732C6C0884006D08850000082A3A031919
:100AC400A02C6C0884006D0885000008423A0319C4
:100AD400AB2C6C0884006D08850000084C3A03199F
:100AE400B02C6C0884006D0885000008503A031986
:100AF400C92C6C0884006D0885000008443A031969
:100B0400F02C6C0884006D0885000008433A031932
:100B1400082D6C0884006D08850000084B3A031901
:100B2400142D6C0884006D0885000008413A0319EF
:060B3400192D352D08000B
:100B3A0023001908F1009D1CA42D1D121D16710811
:040B4A00F0000800AF
:0C0B4E0000302000911A0130F000080077
:100B5A0020000F18B72D8F18B72D0F19B72D8F1921
:100B6A00B72DC1010F1CBA2D41148F1CBD2DC11404
:0E0B7A000F1DC02D41158F1DC32DC115080084
:100B88002B302000D2000030D300AD30D40000302C
:100B9800D5009D30B0000530B1000030B200003003
:100BA800B300A730B4000530B5000030B6000030FF
:100BB800B700FF30AC00FF30AD000030AE000030B1
:100BC800AF0023009E1690309D0021008E170E1353
:100BD8002000911EF32D23001908F000EC2D0800C9
:100BE80023008C018D018F01900121008E101010BF
:100BF8002000101070302100990020008E10210074
:100C08000F148F140F158F150D108D100D110F1651
:100C180020000D108D100D1121008F168D1220004F
:100C28008D1221000E150C162000BC01BD01BA0161
:0C0C3800BB01C101B801B901AB0108000B
:100C440012001E00F003031D222EF103031D222EA9
:020C5400080096
:100C560022302000A000A1013030A2003030A300D5
:100C66003030A4002E30A5003030A6003030A7006A
:100C76003030A8003030A900AA01F42510108E14D7
:100C86000330FB000830FC007730FD00FD0B492ED9
:100C9600FC0B492EFB0B492E10148E100330FB0063
:100CA6000830FC007730FD00FD0B572EFC0B572E4D
:100CB600FB0B572E10108E140330FB000830FC007F
:100CC6007730FD00FD0B652EFC0B652EFB0B652EAC
:100CD60010148E1023009F159C01CF309B001E150B
:100CE600C4250230FB000430FC00BA30FD00FD0BC9
:100CF6007A2EFC0B7A2EFB0B7A2E00002000BA010E
:100D0600BB01AD25A72570080319C12E9D257008C6
:100D16002000BE007008233A031D972E3908031DD4
:100D2600972E0130B900C12E3E083B3A031DB32E63
:100D360039080319B32E42303A07860000303B3D8E
:100D460087003E088100BA0A0319BB0A4230DA005E
:100D56000030DB0032242000BA01BB01B901C12EEC
:100D660039080319C12E42303A07860000303B3D50
:100D760087003E088100BA0A0319BB0A0130D6076C
:100D86000030D73DD83DD93D2B080319DF2E003062
:100D96005902031DD82E00305802031DD82E0730E5
:100DA6005702031DD82ED0305602031CDF2E1924FD
:0C0DB600D601D701D801D901842EE02E0F
:020000040001F9
:04000E00C1FFFFFE31
:00000001FF
